:060149000108000109009D
:0801410075B0FF12008F80FB76
:08012F007F147EF8DEFEDFFA0A
:0101370022A5
:080138007F0A7EF8DEFEDFFA0B
:01014000229C
:10008F0030B40930B50630C20320C46E12012F30D0
:10009F00B40930B50630C20320C45F20B402B29059
:1000AF0020B51A0508E508C3940A4003E4F508E5EE
:1000BF0008F4F590E508D394054002C29730C203C7
:1000CF0020C42B20C20F12010A0509E509C3940AA7
:1000DF00400375090920C41112010AE509D39400E0
:1000EF00400415098003E4F509E509F4F59030B4EF
:0B00FF00FD30B5FA30C2F730C4F42227
:10010A00750AF8C2B2120121D2B2120121150AE50A
:06011A000AD3940050ED31
:0101200022BC
:0D0121007F327E00EF1F70011EEF4E70F761
:01012E0022AE
:06015000E508F4F5902221
:03000000020003F8
:0C000300787FE4F6D8FD75810A02004AFF
:10000F00020141E493A3F8E493A34003F68001F2C5
:10001F0008DFF48029E493A3F85407240CC8C333F2
:10002F00C4540F4420C8834004F456800146F6DFC1
:10003F00E4800B0102040810204080900149E47E07
:10004F00019360BCA3FF543F30E509541FFEE493B6
:10005F00A360010ECF54C025E060A840B8E493A37D
:10006F00FAE493A3F8E493A3C8C582C8CAC583CAA8
:10007F00F0A3C8C582C8CAC583CADFE9DEE780BE60
:01014F0000AF
:00000001FF
