:10041B003F065B4F666D7D077F6F777C395E797129
:01042B004090
:0300030001106386
:1004070075B0FF75C0FF12038812033812000E1271
:04041700015F80F809
:1003F0007524F8C2B212045AD2B212045A1524E576
:0604000024D3940050ED2E
:0104060022D3
:10015F0020B42E12045F20B4281203F0050FE50F10
:10016F00C3943C4003E4F50FE50F75F00A84F513D3
:10017F00E50F75F00A8485F01420B40512000E8087
:10018F00F820B52E12045F20B5281203F0150FE5E5
:10019F000FC3943C4003E4F50FE50F75F00A84F5A7
:1001AF0013E50F75F00A8485F01420B50512000EC3
:1001BF0080F820C24812045F20C2421203F0050EDD
:1001CF00E50EB40102D28CE50EB40202C28CE50E2C
:1001DF00B40318C28CE4F50FF510E50F75F00A841F
:1001EF00F513E50F75F00A8485F014E50EB40405D8
:1001FF00E4F50ED28C20C20512000E80F820C41533
:10020F0012045F20C40F1203F0B200D28C20C40579
:06021F0012000E80F8221F
:1003B800752100752202B2941203D7E52215227026
:0E03C800021521D3E5229400E521940050E8AF
:0103D6002204
:1003D7007523F8D2B212000EC2B212000E1523E531
:0803E70023D3940050EDD2B2C3
:0103EF0022EB
:0D043A00E4F5901204471204477590FF226C
:10000E00E51190041B93F580C2A6D2A6C2A67580F8
:10001E00EF12045490042CE493F580C2A6D2A6C22B
:10002E00A67580FFC2A7D2A7C2A7E51290041B93A4
:10003E00F580C2A6D2A6C2A67580DF120454900423
:10004E002CE493F580C2A6D2A6C2A67580FFC2A7E5
:10005E00D2A7C2A7E51390041B93F580C2A6D2A621
:10006E00C2A67580BF12045490042CE493F580C28E
:10007E00A6D2A6C2A67580FFC2A7D2A7C2A7E514B4
:10008E0090041B93F580C2A6D2A6C2A675807F12DD
:10009E00045490042CE493F580C2A6D2A6C2A67591
:1000AE0080FFC2A7D2A7C2A7E51590041B93F580C7
:1000BE00C2A6D2A6C2A67580FE12045490042CE4E9
:1000CE0093F580C2A6D2A6C2A67580FFC2A7D2A7FC
:1000DE00C2A7E51690041B93F580C2A6D2A6C2A6AF
:1000EE007580FD12045490042CE493F580C2A6D2C0
:1000FE00A6C2A67580FFC2A7D2A7C2A7E518900414
:10010E001B93F580C2A6D2A6C2A67580FB1204541C
:10011E0090042CE493F580C2A6D2A6C2A67580FFE9
:10012E00C2A7D2A7C2A7E51990041B93F580C2A659
:10013E00D2A6C2A67580F712045490042CE493F54F
:10014E0080C2A6D2A6C2A67580FFC2A7D2A7C2A79A
:01015E00227E
:06045400C2A7D2A7C2A757
:04045A007FF8DFFE4A
:01045E00227B
:08045F007F147EF8DEFEDFFAD7
:010467002272
:0D042C007F327E00EF1F70011EEF4E70F753
:0104390022A0
:0C0447007F147E147DF8DDFEDEFADFF687
:010453002286
:10038800758901758C3C758AB0D2A9D2AFE4F5178E
:10039800F50FE50F75F00A84F513E50F75F00A847B
:1003A80085F014D28C758DEC758B78D2ABC28E2209
:03000B000202B13D
:1002B100C0E0C0F0C083C082C0D075D000C000C013
:1002C10001C002C003C004C005C006C007758C3C54
:1002D100758AB00517E51764147041F517050FE528
:1002E1000FC3941E400DE50FD39428500620000340
:1002F1001203B8E50FC3941E400BE50FB43C06751D
:100301000F00750900751110751210E50F75F00ACF
:1003110084F513E50F75F00A8485F014D007D00633
:10032100D005D004D003D002D001D000D0D0D082EB
:07033100D083D0F0D0E032D0
:1003380075280075290AE4F526F527E52915297099
:10034800021528E4F524F525AF298F118F128F1394
:100358008F148F158F168F188F1912000E0525E52B
:100368002570020524C39464E524940040DA052727
:0F037800E52770020526C3940AE526940040BCD1
:010387002253
:03000000020225D4
:0C022500787FE4F6D8FD75812902026C98
:10023100020407E493A3F8E493A34003F68001F2D8
:1002410008DFF48029E493A3F85407240CC8C333CE
:10025100C4540F4420C8834004F456800146F6DF9D
:10026100E4800B0102040810204080900003E47E2A
:10027100019360BCA3FF543F30E509541FFEE49392
:10028100A360010ECF54C025E060A840B8E493A359
:10029100FAE493A3F8E493A3C8C582C8CAC583CA84
:1002A100F0A3C8C582C8CAC583CADFE9DEE780BE3C
:0100060000F9
:00000001FF
