:100539003F065B4F666D7D077F6F777C395E79710A
:100549004000BF86DBCFE6EDFD87FFEF777C395EA4
:040559007971400074
:1005C00012050E1204DB12055D1202BB75BC898098
:0105D000F832
:1004990020B4301205F820B42A053BE53B7002056B
:1004A9003AC39410E53A94004005E4F53AF53BC3A4
:1004B900E53B940AE53A94004004D2008002C20068
:1004C90030B4FD20B50B1205F820B505C20030B5D2
:0204D900FD2202
:1002BB00754D11754E11754F11755011E54D90051A
:1002CB003993F580C2A6D2A6C2A67580FE1205EDA3
:1002DB007580FFC2A7D2A7C2A7E54E90053993F54B
:1002EB0080C2A6D2A6C2A67580FD1205ED7580FF51
:1002FB00C2A7D2A7C2A7E54F90053993F580C2A636
:10030B00D2A6C2A67580FB1205ED7580FFC2A7D2DF
:10031B00A7C2A7E55090053993F580C2A6D2A6C215
:10032B00A67580F71205ED7580FFC2A7D2A7C2A7ED
:10033B00E55190053993F580C2A6D2A6C2A6758069
:10034B00EF1205ED7580FFC2A7D2A7C2A7E55490A7
:10035B00054B93F580C2A6D2A6C2A67580DF120507
:10036B00ED7580FFC2A7D2A7C2A7E55690053993BA
:10037B00F580C2A6D2A6C2A67580BF1205ED758008
:10038B00FFC2A7D2A7C2A7E55790053993F580C244
:10039B00A6D2A6C2A675807F1205ED7580FFC2A7F7
:0503AB00D2A7C2A72249
:1003B000E54D90053993F580D2A2D2A3D2A41205BF
:1003C000F81205F3E4F580D2A2D2A3D2A4E54E90B0
:1003D000053993F580C2A2D2A3D2A41205F8120562
:1003E000F3E4F580C2A2D2A3D2A4E54F90053993DD
:1003F000F580D2A2C2A3D2A41205F81205F375802B
:10040000FFD2A2C2A3D2A4E55090053993F580C2D1
:10041000A2C2A3D2A41205F81205F37580FFC2A2EE
:10042000C2A3D2A4E55190053993F580D2A2D2A3FC
:10043000C2A41205F81205F37580FFD2A2D2A3C29E
:10044000A4E55490054B93F580C2A2D2A3C2A41296
:1004500005F81205F37580FFC2A2D2A3C2A4E55627
:1004600090053993F580D2A2C2A3C2A41205F81256
:1004700005F37580FFD2A2C2A3C2A4E55790053947
:1004800093F580C2A2C2A3C2A41205F81205F3E438
:09049000F580C2A2C2A3C2A4229D
:0605ED00C2A7D2A7C2A7BD
:0405F3007FF8DFFEB0
:0105F70022E1
:0805F8007F147EF8DEFEDFFA3D
:0106000022D7
:0605AD001205B31205B3B4
:0C05B3007F147E147DF8DDFEDEFADFF61A
:0105BF002219
:1005D100758901758CFF758A9CD2A9D2AFD28C2204
:03000B0002059556
:10059500C0E0C0D0758CFF758A9CE554C3940240B9
:0805A50002B2B2D0D0D0E03266
:10055D00759D0275BC81E4FFFE0FBF00010EBE2725
:0E056D00F8BF10F5439720D2ADD2AF75BC8910
:01057B00225D
:03002B0002002EA2
:10002E00C0E0C0F0C083C082C0D075D000C000C098
:10003E0001C002C003C004C005C006C00775BC8164
:10004E00E5BD5403F53085BE31FE7C00E42531F567
:10005E0045EC3EF5440535E53570020534D3940084
:10006E00E53494045016E5452543F543E544354201
:10007E00F542E43541F541EC3540F540D3E5359494
:10008E0000E53494045003020180AF43AE42AD410B
:10009E00AC40E4FB7A04F9F81202298F438E428DAC
:1000AE00418C40753400753500E47FE87E03FDFC1D
:1000BE00AB43AA42A941A84012019EE4FB7A04F97F
:1000CE00F81202298F438E428D418C40E47BE87AF0
:1000DE0003F9F81202298F51E5517003755111E49D
:1000EE007BE87A03F9F8AF43AE42AD41AC40120261
:1000FE0029AC00AD01AE02AF03E47B64FAF9F8124D
:10010E0002298F54E47BE87A03F9F8AF43AE42AD8F
:10011E0041AC40120229AC00AD01AE02AF03E47B4C
:10012E0064FAF9F8120229AC00AD01AE02AF03E495
:10013E007B0AFAF9F81202298F56E47BE87A03F962
:10014E00F8AF43AE42AD41AC40120229AC00AD0156
:10015E00AE02AF03E47B64FAF9F8120229AC00ADEB
:10016E0001AE02AF03E47B0AFAF9F8120229AF03DB
:10017E008F5775BC8CD007D006D005D004D003D0D5
:10018E0002D001D000D0D0D082D083D0F0D0E032D7
:0400030075B0FF22B3
:10050E007C03C290C291C292C293C294C295C2960B
:10051E00C2971205ADD290D291D292D293D294D2EA
:0A052E0095D296D2971205ADDCD8E5
:0105380022A0
:1004DB007C098C4DE54D90053993F580C2A6D2A6CB
:1004EB00C2A6E4F580C2A7D2A7C2A71205AD12051A
:1004FB00B31205B37580FFC2A7D2A7C2A7DCD3E4A2
:02050B00F54DAC
:01050D0022CB
:10057C00750AF8D2B212000EC2B212000E150AE5BC
:08058C000AD3940050EDD2B235
:010594002244
:10000E007508007509011202BBE509150970021584
:0C001E0008D3E5099400E508940050EABE
:01002A0022B3
:030000000205E115
:0C05E100787FE4F6D8FD7581570205C054
:10019E00E88FF0A4CC8BF0A42CFCE98EF0A42CFC00
:1001AE008AF0EDA42CFCEA8EF0A4CDA8F08BF0A47E
:1001BE002DCC3825F0FDE98FF0A42CCD35F0FCEBDD
:1001CE008EF0A4FEA9F0EB8FF0A4CFC5F02ECD39A2
:0F01DE00FEE43CFCEAA42DCE35F0FDE43CFC220F
:1001ED0075F008758200EF2FFFEE33FECD33CDCCC9
:1001FD0033CCC58233C5829BED9AEC99E58298404C
:10020D000CF582EE9BFEED9AFDEC99FC0FD5F0D628
:10021D00E4CEFBE4CDFAE4CCF9A88222B800C1B952
:10022D000059BA002DEC8BF084CFCECDFCE5F0CB90
:10023D00F97818EF2FFFEE33FEED33FDEC33FCEBC9
:10024D0033FB10D703994004EB99FB0FD8E5E4F984
:10025D00FA227818EF2FFFEE33FEED33FDEC33FC71
:10026D00C933C910D7059BE99A4007EC9BFCE99A65
:10027D00F90FD8E0E4C9FAE4CCFB2275F010EF2FAA
:10028D00FFEE33FEED33FDCC33CCC833C810D707AA
:10029D009BEC9AE899400AED9BFDEC9AFCE899F8E5
:0E02AD000FD5F0DAE4CDFBE4CCFAE4C8F92278
:00000001FF
