:1005C9003F065B4F666D7D077F6F777C395E79717A
:0305D9004000419E
:10053D0012050E12048A1205B0D2A0D2A1D2A2D2F7
:10054D00A3D2B4D2B5D2C2D2C41200031201AF806D
:01055D00F8A5
:1004DA0020B42212060320B41C050BE50BC39410AA
:1004EA004003E4F50BE50BC3940A4004D2008002F2
:1004FA00C20030B4FD20B50B12060320B505C200B8
:04050A0030B5FD22E9
:10000300D2A0D2A1D2A2D2A3D2B4D2B5D2C2D2C4E8
:10001300C2A020B41412060320B406120597750C6F
:100023000720B4051201AF80F820B514120603208F
:10003300B506120597750C0820B5051201AF80F8B7
:1000430020C21412060320C206120597750C09205C
:10005300C2051201AF80F820C41412060320C4069F
:10006300120597750C0A20C4051201AF80F8D2A0BF
:10007300C2A120B41412060320B406120597750C0E
:100083000420B4051201AF80F820B5141206032032
:10009300B506120597750C0520B5051201AF80F85A
:1000A30020C21412060320C206120597750C0620FF
:1000B300C2051201AF80F820C41412060320C4063F
:1000C300120597750C0B20C4051201AF80F8D2A15D
:1000D300C2A220B41412060320B406120597750CAD
:1000E3000120B4051201AF80F820B51412060320D5
:1000F300B506120597750C0220B5051201AF80F8FD
:1001030020C21412060320C206120597750C0320A1
:10011300C2051201AF80F820C41412060320C406DE
:10012300120597750C0C20C4051201AF80F8D2A2FA
:10013300C2A320B41412060320B406120597E4F5F3
:100143000C20B4051201AF80F820B5141206032069
:10015300B506120597750C0F20B5051201AF80F88F
:1001630020C21412060320C206120597750C0E2036
:10017300C2051201AF80F820C41412060320C4067E
:10018300120597750C0D20C4051201AF80F8D2A398
:10019300750D10750E10750F107510107511107503
:0C01A3001210751310751510850C0E223B
:10055E00751C00751D64B294120592E51D151D7073
:0E056E0002151CD3E51D9400E51C940050E816
:01057C00225C
:08060C00E50BF4F5900205EA8C
:1001AF00E50D9005C993F580C2A6D2A6C2A67580AB
:1001BF00EF12058C9005DAE493F580C2A6D2A6C2A1
:1001CF00A67580FFC2A7D2A7C2A7E50E9005C99357
:1001DF00F580C2A6D2A6C2A67580DF12058C900547
:1001EF00DAE493F580C2A6D2A6C2A67580FFC2A795
:1001FF00D2A7C2A7E50F12057D9005DAE493F5802B
:10020F00C2A6D2A6C2A67580FFC2A7D2A7C2A7E573
:10021F00109005C993F580C2A6D2A6C2A675807F9D
:10022F0012058C9005DAE493F580C2A6D2A6C2A679
:10023F007580FFC2A7D2A7C2A7E5119005C993F594
:10024F0080C2A6D2A6C2A67580FE12058C9005DAD2
:10025F00E493F580C2A6D2A6C2A67580FFC2A7D22C
:10026F00A7C2A7E5129005C993F580C2A6D2A6C270
:10027F00A67580FD12058C9005DAE493F580C2A671
:10028F00D2A6C2A67580FFC2A7D2A7C2A7E51390B8
:10029F0005C993F580C2A6D2A6C2A67580FB12052A
:1002AF008C9005DAE493F580C2A6D2A6C2A675801B
:1002BF00FFC2A7D2A7C2A7E5159005C993F580C2C3
:1002CF00A6D2A6C2A67580F712058C9005DAE49324
:1002DF00F580C2A6D2A6C2A67580FFC2A7D2A7C2BA
:0202EF00A72244
:100597007516F8D2B21205DCC2B21205DC1516E5E3
:0805A70016D3940050EDD2B20E
:0105AF002229
:1005B0007516F8D2B2120603C2B21206031516E57A
:0805C00016D3940050EDD2B2F5
:0105C8002210
:0D05DC007F327E00EF1F70011EEF4E70F7A2
:0105E90022EF
:10057D009005C993F580C2A6D2A6C2A67580BFC24A
:05058D00A7D2A7C2A7E0
:040592007FF8DFFE11
:010596002242
:080603007F147EF8DEFEDFFA31
:01060B0022CC
:0C05EA007F147E147DF8DDFEDEFADFF6E3
:0105F60022E2
:0106140022C3
:10050E00750B6EE4F51674F5250BF50BE4F517F582
:10051E00181204330518E51870020517C39420E568
:0E052E0017940340EC0516E516C3940A40D856
:01053C00229C
:10043300E50B75F00A84F509E50B75F00A8485F080
:100443000AE50912057D9005DAE493F580C2A6D288
:10045300A6C2A67580FFC2A7D2A7C2A7E50A9005C8
:10046300C993F580C2A6D2A6C2A675807F12058C59
:100473009005DAE493F580C2A6D2A6C2A67580FFE2
:07048300C2A7D2A7C2A72205
:10048A00751A00751B0AE4F518F519E51B151B709A
:10049A0002151AE4F516F517AF1B8F0D8F0E8F0F85
:1004AA008F108F118F128F138F151201AF0517E559
:1004BA001770020516C39490E516940140DA0519DF
:0F04CA00E51970020518C3940AE518940040BCA8
:0104D9002200
:1002F100E50D9005C993F580C2A6D2A6C2A6758068
:10030100FE12058C9005DAE493F580C2A6D2A6C24E
:10031100A67580FFC2A7D2A7C2A7E50E9005C99313
:10032100F580C2A6D2A6C2A67580FD12058C9005E5
:10033100DAE493F580C2A6D2A6C2A67580FFC2A751
:10034100D2A7C2A7E50F9005C993F580C2A6D2A690
:10035100C2A67580FB12058C9005DAE493F580C284
:10036100A6D2A6C2A67580FFC2A7D2A7C2A7E510D2
:100371009005C993F580C2A6D2A6C2A67580F712D0
:10038100058C9005DAE493F580C2A6D2A6C2A675C3
:1003910080FFC2A7D2A7C2A7E5119005C993F58036
:1003A100C2A6D2A6C2A67580EF12058C9005DAE42A
:1003B10093F580C2A6D2A6C2A67580FFC2A7D2A716
:1003C100C2A7E5129005C993F580C2A6D2A6C2A61E
:1003D1007580DF12058C9005DAE493F580C2A6D210
:1003E100A6C2A67580FFC2A7D2A7C2A7E5131205B0
:1003F1007D9005DAE493F580C2A6D2A6C2A67580E7
:10040100FFC2A7D2A7C2A7E5159005C993F580C27F
:10041100A6D2A6C2A675807F12058C9005DAE49358
:10042100F580C2A6D2A6C2A67580FFC2A7D2A7C276
:02043100A72200
:030000000205F7FF
:0C05F700787FE4F6D8FD75812002053DF8
:00000001FF
