:0E0193001200031200A312010F12013E80F2AF
:0E01A100C296C2971201AFD296D2970201AF5A
:10016D00C290C291C292C293C294C295C296C297D6
:10017D001201AFD290D291D292D293D294D295D283
:06018D0096D2970201AFBB
:10000300C2901201BCC2911201BCC2921201BCC2C5
:10001300931201BCC2941201BCC2951201BCC296D8
:100023001201BCC2971201BCD2901201BCD2911230
:1000330001BCD2921201BCD2931201BCD294120120
:10004300BCD2951201BCD2961201BCD2971201BC4C
:10005300C2971201BCC2961201BCC2951201BCC266
:10006300941201BCC2931201BCC2921201BCC29190
:100073001201BCC2901201BCD2901201BCD29112E7
:1000830001BCD2921201BCD2931201BCD2941201D0
:10009300BCD2951201BCD2961201BCD2970201BC0C
:1000A300C2901201BCD290C2911201BCD291C292F1
:1000B3001201BCD292C2931201BCD293C294120118
:1000C300BCD294C2951201BCD295C2961201BCD285
:1000D30096C2971201BCD297C2961201BCD296C2A5
:1000E300951201BCD295C2941201BCD294C2931250
:1000F30001BCD293C2921201BCD292C2911201BC32
:0C010300D291C2901201BCD2900201BC4B
:10010F00C297C2901201BCC296C2911201BCC29595
:10011F00C2921201BCC294C2931201BCD290D2916E
:0F012F00D292D293D294D295D296D2970201BC9B
:10013E00C294C2931201BCC295C2921201BCC29665
:10014E00C2911201BCC297C2901201BCD290D29140
:0F015E00D292D293D294D295D296D2970201BC6C
:0C01AF007F147E147DF8DDFEDEFADFF622
:0101BB002221
:0C01BC007F647E147DF8DDFEDEFADFF6C5
:0101C8002214
:030000000201C931
:0C01C900787FE4F6D8FD758107020193F1
:00000001FF
