:1009DA003F065B4F666D7D077F6F777C395E797165
:0209EA004000CB
:06000300011101010C01D6
:10097A00120A0C1209C61208E812066C120913129E
:0A098A00000E12048012026E80F8C5
:10095B00751C00751D64B2941209A9E51D151D7057
:0E096B0002151CD3E51D9400E51C940050E815
:01097900225B
:1009C600C2B212094E12094E12094E12094E1209EE
:0409D6004ED2B22229
:1004800020B41C1209FA20B416C28C050BE50BC36C
:1004900094074003E4F50B20B40512026E80F8E5E2
:1004A0000B6401703A20B51A1209FA20B514C28CF7
:1004B000050AE50AB41803750A1720B50512026E7D
:1004C00080F820C21A1209FA20C214C28C150AE55B
:1004D0000AB4FF03E4F50A20C20512026E80F8E5B3
:1004E0000B6402703A20B51A1209FA20B514C28CB6
:1004F000050DE50DB43C03750D3B20B50512026EEC
:1005000080F820C21A1209FA20C214C28C150DE517
:100510000DB4FF03E4F50D20C20512026E80F8E56C
:100520000B6403703A20B51A1209FA20B514C28C74
:10053000050FE50FB43C03750F3B20B50512026EA5
:1005400080F820C21A1209FA20C214C28C150FE5D5
:100550000FB4FF03E4F50F20C20512026E80F8E528
:100560000B6404703A20B51A1209FA20B514C28C33
:100570000511E511B4180375111720B50512026EA7
:1005800080F820C21A1209FA20C214C28C1511E593
:1005900011B4FF03E4F51120C20512026E80F8E5E4
:1005A0000B6405703A20B51A1209FA20B514C28CF2
:1005B0000516E516B43C0375163B20B50512026E10
:1005C00080F820C21A1209FA20C214C28C1516E54E
:1005D00016B4FF03E4F51620C20512026E80F8E59A
:1005E0000B6406703A20B51A1209FA20B514C28CB1
:1005F000050CE50CB43C03750C3B20B50512026EEE
:1006000080F820C21A1209FA20C214C28C150CE517
:100610000CB4FF03E4F50C20C20512026E80F82032
:10062000002DE511650A7027E516B50D22E50FC30B
:10063000950C401BE50C2405FFE433FED3E50F9F2A
:10064000EE6480F87480985006C2B2C2948004D2DE
:10065000B2D29420C4151209FA20C40FD28CC28ED3
:0C066000E4F50B20C40512026E80F822A5
:100994009009DA93F580C2A6D2A6C2A67580EFC2EA
:0509A400A7D2A7C2A7C5
:0409A9007FF8DFFEF6
:0109AD002227
:0809FA007F147EF8DEFEDFFA37
:010A020022D1
:1009390012094E12094E12094E12094E12094E128F
:05094900094E12094EE9
:0C094E007F147E147DF8DDFEDEFADFF67B
:01095A00227A
:10091300758901758C3C758AB0D2A9D2AFE4F519FB
:10092300F50FE50F75F00A84F51AE50F75F00A84E3
:0609330085F01BD28C22AE
:03000B0002087474
:10087400C0E0C0F0C0D0758C3C758AB00519E5198C
:1008840064147059F519050FE50FB43C17750F0082
:10089400050DE50DB43C0D750D00050AE50AB41807
:1008A40003750A00E50A75F00A84F512E50A75F085
:1008B4000A8485F013751410E50D75F00A84F51596
:1008C400E50D75F00A8485F017751810E50F75F0BD
:1008D4000A84F51AE50F75F00A8485F01BD0D0D090
:0408E400F0D0E0323E
:10026E000510E50B6401600CE50B64026006E50BFE
:10027E0064037039E50A75F00A84F512E50A75F023
:10028E000A8485F013751410E50D75F00A84F515C2
:10029E00E50D75F00A8485F017751810E50F75F0E9
:1002AE000A84F51AE50F75F00A8485F01BE50B64D8
:1002BE0004600CE50B64056006E50B64067039E519
:1002CE001175F00A84F512E51175F00A8485F013A4
:1002DE00751410E51675F00A84F515E51675F00A15
:1002EE008485F017751810E50C75F00A84F51AE57B
:1002FE000C75F00A8485F01BE50BB4010DE510D3E7
:10030E0094645006751211751311E50BB4020DE5C8
:10031E0010D394645006751511751711E50BB403BF
:10032E000DE510D394645006751A11751B11E50B6B
:10033E00B4040DE510D394645006751211751311A3
:10034E00E50BB4050DE510D39464500675151175C3
:10035E001711E50BB4060DE510D394645006751A0B
:10036E0011751B11E510D394C84003E4F510E51286
:10037E009009DA93F580C2A6D2A6C2A67580EFC206
:10038E00A7D2A7C2A71209A97580FFC2A7D2A7C27A
:10039E00A7E51393F580C2A6D2A6C2A67580DFC2CA
:1003AE00A7D2A7C2A71209A97580FFC2A7D2A7C25A
:1003BE00A7E51493F580C2A6D2A6C2A67580BFC2C9
:1003CE00A7D2A7C2A71209A97580FFC2A7D2A7C23A
:1003DE00A7E51593F580C2A6D2A6C2A675807FC2E8
:1003EE00A7D2A7C2A71209A97580FFC2A7D2A7C21A
:1003FE00A7E51793F580C2A6D2A6C2A67580FEC247
:10040E00A7D2A7C2A71209A97580FFC2A7D2A7C2F9
:10041E00A7E51893F580C2A6D2A6C2A67580FDC226
:10042E00A7D2A7C2A71209A97580FFC2A7D2A7C2D9
:10043E00A7E51A93F580C2A6D2A6C2A67580FBC206
:10044E00A7D2A7C2A71209A97580FFC2A7D2A7C2B9
:10045E00A7E51B93F580C2A6D2A6C2A67580F7C2E9
:10046E00A7D2A7C2A71209A97580FFC2A7D2A7C299
:02047E00A722B3
:10001E000510E50B6401600CE50B64026006E50B50
:10002E0064037039E50A75F00A84F512E50A75F075
:10003E000A8485F013751410E50D75F00A84F51514
:10004E00E50D75F00A8485F017751810E50F75F03B
:10005E000A84F51AE50F75F00A8485F01BE50B642A
:10006E0004600CE50B64056006E50B64067039E56B
:10007E001175F00A84F512E51175F00A8485F013F6
:10008E00751410E51675F00A84F515E51675F00A67
:10009E008485F017751810E50C75F00A84F51AE5CD
:1000AE000C75F00A8485F01BE50BB4010DE510D339
:1000BE0094645006751211751311E50BB4020DE51B
:1000CE0010D394645006751511751711E50BB40312
:1000DE000DE510D394645006751A11751B11E50BBE
:1000EE00B4040DE510D394645006751211751311F6
:1000FE00E50BB4050DE510D3946450067515117516
:10010E001711E50BB4060DE510D394645006751A5D
:10011E0011751B11E510D394C84003E4F510E512D8
:10012E001209949009EBE493F580C2A6D2A6C2A65A
:10013E007580FFC2A7D2A7C2A7E5139009DA93F57F
:10014E0080C2A6D2A6C2A67580DF1209A39009EBC3
:10015E00E493F580C2A6D2A6C2A67580FFC2A7D22E
:10016E00A7C2A7E5149009DA93F580C2A6D2A6C25B
:10017E00A67580BF1209A39009EBE493F580C2A681
:10018E00D2A6C2A67580FFC2A7D2A7C2A7E51590B8
:10019E0009DA93F580C2A6D2A6C2A675807F12098F
:1001AE00A39009EBE493F580C2A6D2A6C2A67580F1
:1001BE00FFC2A7D2A7C2A7E5179009DA93F580C2AE
:1001CE00A6D2A6C2A67580FE1209A39009EBE493EF
:1001DE00F580C2A6D2A6C2A67580FFC2A7D2A7C2BC
:1001EE00A7E5189009DA93F580C2A6D2A6C2A67525
:1001FE0080FD1209A39009EBE493F580C2A6D2A666
:10020E00C2A67580FFC2A7D2A7C2A7E51A9009DAC7
:10021E0093F580C2A6D2A6C2A67580FB1209A39042
:10022E0009EBE493F580C2A6D2A6C2A67580FFC2E2
:10023E00A7D2A7C2A7E51B9009DA93F580C2A6D272
:10024E00A6C2A67580F71209A39009EBE493F58078
:10025E00C2A6D2A6C2A67580FFC2A7D2A7C2A722E7
:040A0C0075B0FF22A0
:1008E8007C03C290C291C292C293C294C295C2962E
:1008F800C297120939D290D291D292D293D294D27D
:0A09080095D296D297120939DCD877
:0109120022C2
:10066C007E098E128E138E148E158E178E188E1A7E
:10067C008E1B7D64E5129009DA93F580C2A6D2A692
:10068C00C2A67580FE1209A39009EBE493F580C213
:10069C00A6D2A6C2A67580FFC2A7D2A7C2A7E51391
:1006AC009009DA93F580C2A6D2A6C2A67580FD1277
:1006BC0009A39009EBE493F580C2A6D2A6C2A67555
:1006CC0080FFC2A7D2A7C2A7E5149009DA93F580E0
:1006DC00C2A6D2A6C2A67580FB1209A39009EBE4B0
:1006EC0093F580C2A6D2A6C2A67580FFC2A7D2A7D8
:1006FC00C2A7E5159009DA93F580C2A6D2A6C2A6C8
:10070C007580F71209A39009EBE493F580C2A6D289
:10071C00A6C2A67580FFC2A7D2A7C2A7E517120969
:10072C00949009EBE493F580C2A6D2A6C2A675807C
:10073C00FFC2A7D2A7C2A7E5189009DA93F580C229
:10074C00A6D2A6C2A67580DF1209A39009EBE4938A
:10075C00F580C2A6D2A6C2A67580FFC2A7D2A7C238
:10076C00A7E51A9009DA93F580C2A6D2A6C2A6759F
:10077C0080BF1209A39009EBE493F580C2A6D2A620
:10078C00C2A67580FFC2A7D2A7C2A7E51B9009DA43
:10079C0093F580C2A6D2A6C2A675807F1209A3903B
:1007AC0009EBE493F580C2A6D2A6C2A67580FFC25F
:1007BC00A7D2A7C2A71DED60030206801EEE600340
:1007CC0002066E75121075131075141075151075D0
:0B07DC001710751810751A10E4F51BBB
:0107E70022EF
:1009AE007D007C10D2B21209A9C2B21209A9ED1DA6
:0709BE0070011CED4C70ED0F
:0109C500220F
:0D09EC007F327E00EF1F70011EEF4E70F78E
:0109F90022DB
:0B000E00758DFE758B0CD2ABD2AF22BB
:03001B00020A03D3
:090A0300758DFE758B0CB2B23248
:030000000207E80C
:0C07E800787FE4F6D8FD75812002082F10
:1007F40002097AE493A3F8E493A34003F68001F298
:1008040008DFF48029E493A3F85407240CC8C33305
:10081400C4540F4420C8834004F456800146F6DFD4
:10082400E4800B0102040810204080900003E47E61
:10083400019360BCA3FF543F30E509541FFEE493C9
:10084400A360010ECF54C025E060A840B8E493A390
:10085400FAE493A3F8E493A3C8C582C8CAC583CABB
:10086400F0A3C8C582C8CAC583CADFE9DEE780BE73
:0100090000F6
:00000001FF
