:1004DA003F065B4F666D7D077F6F777C395E79716A
:0604EA0040007679383F66
:1004F00075B0FF120494120412750A0A1203A912AD
:04050000027F80F8FE
:1003A90020B41112052B20B40B1204C320B405127A
:1003B900014580F820B51112052B20B50B1204C395
:1003C90020B50512027F80F830C20320C43A120515
:1003D9002B30C20320C42620C20F1204C3050AE52C
:1003E9000AC394144003E4F50A20C4111204C3E5B6
:1003F9000AD394004004150A8003E4F50A30C203C5
:0904090020C40512027F80F522D7
:10027F00E50B9004DA93F580C2A6D2A6C2A67580CC
:10028F00EF1204899004EBE493F580C2A6D2A6C2C4
:10029F00A67580FFC2A7D2A7C2A7E50C9004DA9378
:1002AF00F580C2A6D2A6C2A67580DF12048990047B
:1002BF00EBE493F580C2A6D2A6C2A67580FFC2A7B3
:1002CF00D2A7C2A7E50E9004DA93F580C2A6D2A6F4
:1002DF00C2A67580BF1204899004EBE493F580C227
:1002EF00A6D2A6C2A67580FFC2A7D2A7C2A7E50F46
:1002FF009004DA93F580C2A6D2A6C2A675807F12AB
:10030F0004899004EBE493F580C2A6D2A6C2A67529
:10031F0080FFC2A7D2A7C2A7E5119004DA93F58098
:10032F00C2A6D2A6C2A67580FE12048912046290DC
:10033F0004EBE493F580C2A6D2A6C2A67580FFC2D5
:10034F00A7D2A7C2A7E5139004DA93F580C2A6D26D
:10035F00A6C2A67580FB1204899004EBE493F58086
:10036F00C2A6D2A6C2A67580FFC2A7D2A7C2A7E512
:10037F00149004DA93F580C2A6D2A6C2A67580F7B0
:10038F001204899004EBE493F580C2A6D2A6C2A60C
:0A039F007580FFC2A7D2A7C2A722F3
:10000300E50B9004DA93F580C2A6D2A6C2A675804A
:10001300FE1204899004EBE493F580C2A6D2A6C233
:10002300A67580FFC2A7D2A7C2A7E50C12047A90D7
:1000330004EBE493F580C2A6D2A6C2A67580FFC2E4
:10004300A7D2A7C2A7E50E9004DA93F580C2A6D281
:10005300A6C2A67580FB1204899004EBE493F58095
:10006300C2A6D2A6C2A67580FFC2A7D2A7C2A7E521
:100073000F9004DA93F580C2A6D2A6C2A67580F7C4
:100083001204899004EBE493F580C2A6D2A6C2A61B
:100093007580FFC2A7D2A7C2A7E5119004DA93F532
:1000A30080C2A6D2A6C2A67580EF1204899004EB83
:1000B300E493F580C2A6D2A6C2A67580FFC2A7D2DA
:1000C300A7C2A7E5129004DA93F580C2A6D2A6C20E
:1000D300A67580DF1204899004EBE493F580C2A631
:1000E300D2A6C2A67580FFC2A7D2A7C2A7E5139066
:1000F30004DA93F580C2A6D2A6C2A67580BF120405
:10010300899004EBE493F580C2A6D2A6C2A67580BB
:10011300FFC2A7D2A7C2A7E5149004DA93F580C261
:10012300A6D2A6C2A675807F1204899004EBE4933D
:10013300F580C2A6D2A6C2A67580FFC2A7D2A7C267
:02014300A722F1
:10014500E4F50B750C01750E02750F02751103753B
:100155001211751311751411E50B9004EC93F580CC
:10016500C2A6D2A6C2A67580EF1204899004EBE45C
:1001750093F580C2A6D2A6C2A67580FFC2A7D2A754
:10018500C2A7E50CA393F580C2A6D2A6C2A6758028
:10019500DF1204899004EBE493F580C2A6D2A6C2CF
:1001A500A67580FFC2A7D2A7C2A7E50EA393F580C7
:1001B500C2A6D2A6C2A67580BF1204899004EBE43C
:1001C50093F580C2A6D2A6C2A67580FFC2A7D2A704
:1001D500C2A7E50FA393F580C2A6D2A6C2A67580D5
:1001E5007F1204899004EBE493F580C2A6D2A6C2DF
:1001F500A67580FFC2A7D2A7C2A7E511A393F58074
:10020500C2A6D2A6C2A67580FE1204891204629007
:1002150004EBE493F580C2A6D2A6C2A67580FFC200
:10022500A7D2A7C2A7E5139004DA93F580C2A6D298
:10023500A6C2A67580FB1204899004EBE493F580B1
:10024500C2A6D2A6C2A67580FFC2A7D2A7C2A7E53D
:10025500149004DA93F580C2A6D2A6C2A67580F7DB
:100265001204899004EBE493F580C2A6D2A6C2A637
:0A0275007580FFC2A7D2A7C2A7221E
:08052B007F147EF8DEFEDFFA0A
:0105330022A5
:0C0512007F147E147DF8DDFEDEFADFF6BB
:01051E0022BA
:100462009004EBE493F580C2A6D2A6C2A67580FFE3
:10047200C2A7D2A7C2A7E5129004DA93F580C2A65A
:0D048200D2A6C2A67580FDC2A7D2A7C2A750
:04048F007FF8DFFE15
:010493002246
:10049400750A6EE4F51574F5250AF50AE4F516F502
:1004A4001712027F0517E51770020516C39420E59D
:0E04B40016940340EC0515E515C3940A40D8D4
:0104C2002217
:10041200751900751A0AE4F517F518E51A151A7018
:10042200021519E4F515F516AF1A8F0B8F0C8F0E06
:100432008F0F8F118F128F138F141200030516E581
:100442001670020515C394F4E515940140DA0518F7
:0F045200E51870020517C3940AE517940040BC23
:010461002278
:1004C3007515F8C2B2120504D2B21205041515E56A
:0604D30015D3940050ED6A
:0104D9002200
:0D0504007F327E00EF1F70011EEF4E70F77A
:0105110022C7
:0300000002051FD7
:0C051F00787FE4F6D8FD75811A0204F024
:00000001FF
